:020000040000FA
:1000000040040020D500000089150000F712000010
:1000100000000000000000000000000000000000E0
:10002000000000000000000000000000771B00003E
:100030000000000000000000711B0000EB00000049
:10004000191F000087150000731B00001B12000021
:10005000F91B00001D12000031120000000000001A
:100060000000000000000000000000000000000090
:10007000E501000005040000151F0000171F000027
:10008000F5120000000000000000000085150000CF
:1000900059100000791000007B100000F9120000D8
:1000A00000000000751B0000000000004D1C000057
:1000B0004F1C0000000000000000000019120000AA
:1000C0000348854600F04CF8004800471D1F00001B
:1000D00040040020064908688546064880470648CF
:1000E0000047FEE7FEE7FEE7FEE7FEE7FEE700006B
:1000F00000000000FD1B0000C1000000D2B201E0C2
:100100000270401C491EFBD270470022F6E710B572
:1001100013460A4604461946FFF7F0FF204610BD75
:1001200070B50446002903D000202022012310E0EE
:10013000002801D00020C043C046C0460DE025463F
:10014000D5408D4205D30D469540641B1D46954014
:1001500040191546521E002DF1DC214670BD0000ED
:10016000064C0125064E05E0E36807CC2B430C3C0A
:1001700098471034B442F7D3FFF7A6FFB829000020
:10018000D82900000B4800210160704710B50446D3
:10019000082805D80120A0408B214900084203D13E
:1001A0007448DA2101F0B9FE02480168A1430160F8
:1001B00010BDC04678000040012081070A68024354
:1001C0000A60704710B50446082804D315200101C1
:1001D000684801F0A2FEA0000149405A10BDC04687
:1001E0004000004070470000F0B581B00446006850
:1001F0000421C841042803D35E485D2101F08DFE2F
:10020000A1480168474A0A4302603F20C100464FA7
:100210003A46283A13688B43A168194323680B4375
:1002200061681943116023690F221340D043009085
:100230007D680540EB187B60A569F023DB437E6891
:100240001E402D01EDB275197D60256A7E68374824
:1002500006402D072D0D75197D60A56A7E6834480E
:1002600006402D03ADB275197D60256B7E6831485F
:1002700006402D072D0B75197D60A56B7E682E48F5
:1002800006402D072D0A75197D60256C78682B4E68
:1002900030402D072D0940197860A16C7868284DF1
:1002A0002840090740187860E06810403968009AD3
:1002B0001140081838606069396819400001C0B2FF
:1002C00008183860E0693968184A11400007000DC5
:1002D00008183860606A3968154A1140000380B216
:1002E00008183860E06A3968124A11400007000BAC
:1002F00008183860606B39680F4A11400007000A1F
:1003000008183860E06B39683140000700090818A8
:100310003860606C3968294000070818386001B0FF
:10032000F0BDC04601005A5A28000040FFF0FFFF10
:10033000FF0FFFFFFFFFF0FFFFFF0FFFFFFFFFF0CB
:10034000FFFFFF0F10B50A4C022806D2002809D182
:10035000206801218843206010BD852041000548A8
:1003600001F0DBFD216801200843206010BDC0467C
:10037000080000409029000010B50446022804D36C
:100380002F20C100F14801F0C8FD0E48016810227D
:100390009143E207D20E8918016010BDB0B5044642
:1003A00001200502022C04D329468431E74801F0DC
:1003B000B4FD2002284003490A68AA4310180860C7
:1003C000B0BDC04620140040012108402F4A1368E8
:1003D0008B4318181060704710B50446022804D3E8
:1003E000FF21E831D94801F098FD0120C0030449FC
:1003F0000A688243E00380B21018086010BDC0464E
:10040000441400407047000010B504468068102175
:100410000143102903D0CD48282101F07EFDE0687A
:1004200008210143082903D0C848292101F075FD9E
:1004300060680521C841042803D3C4482A2101F07B
:100440006CFD608A002803D0C0482B2101F065FDB7
:100450000D48016820220A4302600C4801682268A6
:10046000531E9A41D201F8239943A3680B43E168D4
:10047000194363680B431343036021698162616917
:10048000C162A169016310BD384000400014004002
:1004900070B50446006802284ED26068022852D225
:1004A000A068102856D2E06802285AD26069022853
:1004B00003D3A648FE2101F030FD694801680322FC
:1004C00091430160E2680421C94303680B40D207ED
:1004D000520F9A18026063690822D24305681540DA
:1004E000DB071B0FEB180360A36805687026B54394
:1004F0005B075B0EEB18036001231B04A5686D030B
:100500001D4006689E437319036063688568154043
:10051000DA07120FAA188260226883680225AB43AB
:10052000D207920F9A188260A26983680B40D107A4
:10053000490F5918816070BD8448FA2101F0EDFC23
:1005400060680228ACD38148FB2101F0E6FCA0687A
:100550001028A8D37D48FC2101F0DFFCE0680228C8
:10056000A4D37A48FD2101F0D8FC60690228A4D305
:100570009FE7C046B0B50446FF250E350068022847
:1005800050D26068022854D2A068102858D2E0687F
:1005900002285CD26069022803D3291D6B4801F050
:1005A000BCFC032001022E4802688A430260E26814
:1005B00001218B0205689D43D207520DAA180260E3
:1005C0006269CB0205689D43D207120DAA1802602A
:1005D000A26807231B0305689D435207520CAA1803
:1005E00002600906A26852050A4003688B43991805
:1005F00001602168826820239A43C907890E511837
:1006000081606168826880239A43C901C9B2511828
:100610008160A169826840239A43C907490E511835
:100620008160B0BD4948294601F077FC6068022826
:10063000AAD3691C454801F070FCA0681028A6D315
:10064000A91C424801F069FCE0680228A2D3E91C19
:100650003E4801F062FC60690228A2D39DE7C046D3
:100660001814004070B50446FF25203500680228A4
:100670004FD26068022853D2A068102857D2E06891
:1006800002285BD26069022803D3291D2F4801F09C
:1006900044FC2F480168032291430160E16802682D
:1006A00004239A43C907490F511801606169026820
:1006B00008239A43C907090F51180160A16802680D
:1006C00070239A434907490E5118016001210A0419
:1006D000A3685B03134006689643F2180260E13595
:1006E000226852022A404B0245689D43AA18426084
:1006F0006268CB0245689D43D207120DAA1842607A
:10070000A269890243688B43D107490D591841609A
:1007100070BD0E48294601F000FC60680228ABD38A
:10072000691C0A4801F0F9FBA0681028A7D3A91C8E
:10073000064801F0F2FBE0680228A3D3E91C034855
:1007400001F0EBFB60690228A3D39EE712290000A9
:100750001C140040014908607047C0463414004032
:10076000014908607047C0463814004001490860DC
:100770007047C0463C140040F0B581B0984E3068D8
:10078000401C3060974FB868401CB860052800D204
:10079000E6E00025BD6000F02FFA002800D1ACE0B3
:1007A000044630687969884200D2A6E0E00729D083
:1007B0008D4841784A424A4142704178002900D12F
:1007C000E3E08A4910224A6041780029294608D08E
:1007D00081780029294604D0B9780029294600D01B
:1007E00081884278002A06D08279002A03D0FA78DC
:1007F000002A00D00589002000F0F4FB01202946E2
:1008000000F0F0FB6107880F43D077480278012A97
:1008100007D00822835A642B07D26425A60708D480
:1008200008E00422835A642BF7D31D46643DA607D3
:1008300000D52B469EB26E4DAE4203D363350029E0
:1008400004D404E01D466435002900D52B468352AC
:1008500001213970417800250029294608D0817886
:100860000029294604D0B9780029294600D081887A
:100870004278002A06D08279002A03D0FA78002A2A
:1008800000D00589002000F0ADFB0120294600F0D2
:10089000A9FB200707D554480178012901D001217F
:1008A00000E002210170E00627D54F4881784A42D6
:1008B0004A41827081794A424A41827141780024DA
:1008C0000029214608D081780029214604D0B97832
:1008D0000029214600D081884278002A06D08279FA
:1008E000002A03D0FA78002A00D00489002000F002
:1008F00079FB0120214600F075FB00F02FFA00245F
:10090000204600F021FA06460125284600F01CFA90
:10091000B9788E4202D1F978884221D0BE70F87041
:10092000314841780029214608D0817800292146A4
:1009300004D0B9780029214600D081884278002A65
:1009400006D08279002A03D0FA78002A00D00489E0
:10095000002000F047FB2846214600F043FB3D7095
:10096000F868401CF860322804D30020F86000F0DA
:1009700073F8B8803869401C3861C82803D3002058
:1009800038610120387001B0F0BD184910220A60AA
:10099000417800250029294608D081780029294678
:1009A00004D0B9780029294600D081884278002AED
:1009B00006D08279002A03D0FA78002A00D005896F
:1009C000002000F00FFB01263046294600F00AFB0C
:1009D00000F04AFF7E706107880F00D015E758E7E6
:1009E0003C000020240000200000002058010048A6
:1009F0008503000010B594B001AC204614303821B6
:100A0000FFF783FB124801460F31CD4A13680B43B1
:100A1000136001461F3113680B4313609168014353
:100A200091600C48016801220A430260072005908A
:100A30000021039102913021019104902046FFF79B
:100A4000D3FBFFF79FFBFFF7B7FB14B010BDC04609
:100A500001005A5A1C010048F0B585B00120FFF78B
:100A600071FC414C2068C007FCD001252846FFF7E7
:100A70008DFB0020FFF7A6FB04902846FFF762FCE1
:100A80002068C007FCD001252846FFF77FFB002027
:100A9000FFF798FB03902846FFF754FC2068C00737
:100AA000FCD001252846FFF771FB0020FFF78AFBE9
:100AB00002902846FFF746FC2068C007FCD00125BD
:100AC0002846FFF763FB0020FFF77CFB01902846D8
:100AD000FFF738FC2068C007FCD001252846FFF747
:100AE00055FB0020FFF76EFB00902846FFF72AFC1D
:100AF0002068C007FCD001263046FFF747FB0020E6
:100B0000FFF760FB05463046FFF71CFC2068C00776
:100B1000FCD001273846FFF739FB0020FFF752FBD6
:100B200006463846FFF70EFC2068C007FCD00120BF
:100B3000FFF72CFB0498039940180299401801997B
:100B4000401800994018401984190020FFF73AFB1B
:100B50002018C108054848430549FFF7E1FA400459
:100B6000000C05B0F0BDC0467C000040E40C000065
:100B7000FF0F0000F0B583B0DB480168714A1143F4
:100B80000160103201681143016011200190802042
:100B90000290042000900920C5066C462846214694
:100BA00000F050FB524E0027B77177701020009074
:100BB0002846214600F046FBF771B77020200090D0
:100BC0002846214600F03EFB3772F7704020009027
:100BD0002846214600F036FB7772377108200090D6
:100BE0000448214600F02EFBB7727771377003B0CE
:100BF000F0BDC04600010048F0B581B03C4908781E
:100C000000906B4E3268920801231C4694438A7907
:100C1000A24206D04D786D1C4D70EDB2032D03D36A
:100C20008C7100224A702246346824091D46A5436F
:100C3000CC79AC4206D08F787F1C8F70FFB2032F27
:100C400003D3CD7100248C702C4635686D091F4686
:100C5000AF430D7ABD4206D0C878401CC870C0B200
:100C6000032803D30F720020C8703D463068800906
:100C70001F4687434E7ABE4206D00879401C087151
:100C8000C0B2032803D34F72002008713E461948B2
:100C90000068C00883438F7A9F4218D04879401C6F
:100CA0004871C0B2032811D2501E8241002C15D1C8
:100CB000002D16D1002E17D1002F01D01020024395
:100CC0000A7000988243D0B201B0F0BD8B72002050
:100CD00048711F46501E8241002CE9D0921C002D05
:100CE000E8D0121D002EE7D00832002FE8D0E5E74B
:100CF0001000002050010048B0B584B0B64801682B
:100D0000104A0A43026010200290802003900220C3
:100D100001900920C40601AD2046294600F092FA50
:100D2000012001902046294600F08CFA214800213C
:100D3000017041708170C1708180C18004B0B0BD0C
:100D40003040004010005A5A002803D003201949AF
:100D5000085C704702201749085C7047144908680E
:100D60008007C20F13488378934209D08378934257
:100D700008D083885B1C83809BB2142B02D38270C3
:100D8000002282800A6801211140C2788A4202D181
:100D90000021C1807047C2788A42FBD0C288521CB1
:100DA000C28092B2142AF5D3C1700021C18070476D
:100DB000500000481C000020F0B589B000200290CF
:100DC0000890079006900120000532490860BFF3A3
:100DD0004F8FBFF36F8F80482F4981604160016062
:100DE00002680A4310273A43026002680A43202639
:100DF000324302601120049082200590042001906B
:100E000003900920C40603AD2046294600F01AFAD3
:100E100003972046294600F015FA039620462946F6
:100E200000F010FA402703972046294600F00AFAFE
:100E30000820039019483438294600F003FA606B03
:100E4000C043A063154D2868C0436860274806600A
:100E5000076027480660076002980890019907918B
:100E6000069006A800F056FE00F080FE09480660D5
:100E7000BFF34F8FBFF36F8F0760BFF34F8FBFF389
:100E80006F8F606BC043A0632868C043686009B07F
:100E9000F0BDC04680E100E000005A5A340100482D
:100EA00010B50124E00200F067FE4A480246103AFD
:100EB00049490B6813430B600A6802430A608A6859
:100EC00002438A6002461F3A8B6813438B601C38CA
:100ED0004A6802434A60FFF74DFE20050349086057
:100EE0000349086010BDC0463040004080E200E089
:100EF00000E100E0B0B592B00024119410940F947A
:100F00000E940D940C940B940A94099408940794ED
:100F10000694059404942F48014610392E4A13680C
:100F20000B431360116801431160916801439160A4
:100F30002A48016870220A43026020210291802120
:100F4000039102210191183801AD294600F07AF988
:100F500007200103224802680A4302600821019128
:100F60001838294600F06EF90F940E940D940C94E5
:100F70000B941194284810900BA8FFF745FA0A9497
:100F8000099408940794062006900594049404ADEF
:100F90002846FFF77DFA2846FFF7ECFA2846FFF7C8
:100FA00061FB01252846FFF7E7F92846FFF7F6F928
:100FB0002046FFF7CFFB2046FFF7D2FB2046FFF786
:100FC000D5FB2846FFF708FA2846FFF7FDF912B0CF
:100FD000B0BDC04620005A5A3040004018010048B9
:100FE00018000048B0B504460B4D681C48437D21ED
:100FF000C900FFF795F881B249094A2900D805468A
:10100000012C05D0002C06D1A8B2FFF7A9FBB0BD7A
:10101000A8B2FFF7ABFBB0BD5F090000B0B582B06E
:101020000C4801900720009079480168794A0A43EA
:101030000260734C6946204600F0A6F80125204660
:1010400029462A4600F076F82046294600F032F874
:1010500002B0B0BD6F17000010B5694C01212046E9
:1010600000F04AF8012805D10121204600F006F8D9
:10107000FFF782FB10BDC04670477047B0B50D4604
:1010800004465F48844209D05E48844206D05E48E8
:10109000844203D05D48922100F03FFF012D05D02E
:1010A000402D03D05948932100F037FFA069A84391
:1010B000A061B0BDB0B50D4604465148844209D088
:1010C0005048844206D05048844203D04F486321A0
:1010D00000F023FF022D06D2002D08D12068012147
:1010E00088432060B0BD4948642100F016FF2068A5
:1010F000012101432160B0BDB0B50C460546404812
:10110000854209D03F48854206D03F48854203D0FA
:101110003E48822100F001FF012C05D0402C03D075
:101120003A48832100F0F9FE28692040411E884199
:10113000B0BDC04670B516460D46044630488442E0
:1011400009D03048844206D02F48844203D02F482B
:10115000722100F0E2FE022E03D32C48732100F02E
:10116000DCFE012D05D0402D03D02848742100F06D
:10117000D4FE002E03D0E0682843E06070BDE06834
:10118000A843E06070BDC04670B50D4604461C48DB
:10119000844209D01B48844206D01B48844203D0B5
:1011A0001A48492100F0B9FE6888042803D317487B
:1011B0004A2100F0B2FE2888002803D113484B21B1
:1011C00000F0ABFEE88808263043082803D00F481B
:1011D0004C2100F0A2FE0E4801680E4A0A4302604C
:1011E000A888E0622888A0622068B043E9880143AB
:1011F0002160A0680721884369880143A16070BD10
:101200000048004040480040804800403929000024
:101210003440004004005A5A704770470348016840
:10122000002902D00168C94341607047340000487A
:1012300003480168002902D00168C9434160704732
:101240003401004810B50922D306454A984203D01C
:10125000274B984204D11032404B1C6814431C6049
:101260000CC90839002B11D0C3699343C3610A68C4
:101270000B79DB060ED40368934303600A68496860
:10128000202930D141689143416010BDC1691143AB
:10129000C16110BD0368134303600A680369934387
:1012A00003614A68112A03D10A6803691343036181
:1012B0000A68436A934343620A68836A934383627A
:1012C0008A6881231340812B04D10A68436A13433F
:1012D00043628A6882231340822B07D10968826A9D
:1012E0000A43826210BD41681143416010BDC0468F
:1012F000000100487047FEE770470000F0B585B078
:1013000016480168164A1143016010320168114302
:10131000016007200105134C22688A432260000601
:10132000216881432160802704972126039640206D
:1013300001900290183C02AD20462946FFF782FF3B
:10134000049703962026029620462946FFF77AFF47
:10135000044801994164466405B0F0BD3040004046
:1013600010005A5A1801004870B584B00446802015
:10137000039021200290202601962D4D28465838B2
:1013800001A9FFF75FFF4020286061B2002927D440
:101390002E6068602860610627D42E60686028602F
:1013A000A10627D56E6068602860E10627D56E60CB
:1013B00068602860210727D56E6068602860610733
:1013C00027D56E6068602860A10727D56E606860C9
:1013D0002860E10727D06E606860286004B070BDA7
:1013E0006E60686028606106D7D56E6068602860AE
:1013F000A106D7D42E6068602860E106D7D42E609D
:10140000686028602107D7D42E6068602860610773
:10141000D7D42E6068602860A107D7D42E6068609A
:101420002860E107D7D12E606860286004B070BDE5
:1014300058010048F0B58DB00192029109908025C5
:101440000C95212004900B9020270A974B4C2646A0
:101450005C3E0AA93046FFF7F5FE2046276040248F
:101460000460001F07600890046009984006000EA1
:10147000FFF77AFF4148076006950C950546112055
:1014800003900B9005970A970AA907963046FFF735
:10149000D9FE09942C603A4F38462C460C3C216802
:1014A00089060ED5401E0104F7D106980C900498C9
:1014B0000B90059E0A960AA90798FFF7C3FE012024
:1014C00054E00898099901600298FFF74DFF059EC6
:1014D0002E6006980C9003980B900A960AA907981C
:1014E000FFF7B0FE099828603846216889060DD5B7
:1014F000401E0104F9D106980C9004980B900A96AE
:101500000AA90798FFF79EFE01202FE00898099985
:1015100001600198FFF728FF2E6006980C90039851
:101520000B900A960AA90798FFF78CFE0998286085
:10153000206880060DD57F1E3804F9D106980C90DE
:1015400004980B900A960AA90798FFF77BFE0120E2
:101550000CE009980899086006980C9004980B9084
:101560000A960AA90798FFF76DFE00200999089AC4
:101570001160166029602E600DB0F0BD5C0100485E
:101580008813000070477047704780B5002000F056
:1015900001F880BD70B504463C260025B0223046D7
:1015A0002946FFF747FF304629462A46FFF742FF04
:1015B000102230462946FFF73DFF3C2040212246BD
:1015C000FFF738FF681C45B2002DF6D53C260025F4
:1015D000B12230462946FFF72DFF304629462A46DC
:1015E000FFF728FF102230462946FFF723FF3C2053
:1015F00040212246FFF71EFF681C45B2002DF6D59C
:101600003C260025B22230462946FFF713FF30461C
:1016100029462A46FFF70EFF102230462946FFF7DB
:1016200009FF3C2040212246FFF704FF681C45B219
:10163000002DF6D53C260025B32230462946FFF77B
:10164000F9FE304629462A46FFF7F4FE10223046BE
:101650002946FFF7EFFE3C2040212246FFF7EAFE35
:10166000681C45B2002DF6D53C260025B422304634
:101670002946FFF7DFFE304629462A46FFF7DAFE05
:10168000102230462946FFF7D5FE3C204021224655
:10169000FFF7D0FE681C45B2002DF6D53C2600258C
:1016A000B52230462946FFF7C5FE304629462A4670
:1016B000FFF7C0FE102230462946FFF7BBFE3C2054
:1016C00040212246FFF7B6FE681C45B2002DF6D534
:1016D0003C260025B62230462946FFF7ABFE3046B1
:1016E00029462A46FFF7A6FE102230462946FFF774
:1016F000A1FE3C2040212246FFF79CFE681C45B21B
:10170000002DF6D53C260025B72230462946FFF7A6
:1017100091FE304629462A46FFF78CFE10223046BD
:101720002946FFF787FE3C2040212246FFF782FE34
:10173000681C45B2002DF6D570BDF0B581B03C25D2
:101740000024AE2228462146FFF774FE20262846B4
:1017500021463246FFF76EFE1027284621463A46BC
:10176000FFF768FEB02228462146FFF763FEC82235
:1017700028462146FFF75EFE284621462246FFF70F
:1017800059FE284621463A46FFF754FE4022284695
:101790002146FFF74FFE812228462146FFF74AFEE9
:1017A000FF2228462146FFF745FEA1222846214672
:1017B000FFF740FEA62228462146FFF73BFEA8225F
:1017C00028462146FFF736FE3F2228462146FFF7EE
:1017D00031FEA42228462146FFF72CFED3222846BC
:1017E0002146FFF727FE284621462246FFF722FE24
:1017F000D52228462146FFF71DFEF0222846214625
:10180000FFF718FED92228462146FFF713FE2222B1
:1018100028462146FFF70EFEDA2228462146FFF72A
:1018200009FE122228462146FFF704FEDB22284645
:101830002146FFF7FFFD284621463246FFF7FAFD15
:101840008D2228462146FFF7F5FD14222846214621
:10185000FFF7F0FDAF2228462146FFF7EBFD2046BB
:10186000FFF798FE01B0F0BDB0B53C2400258D22F5
:1018700020462946FFF7DEFD102220462946FFF7C5
:10188000D9FDAE2220462946FFF7D4FDB0BDB0B544
:101890003C2400258D2220462946FFF7CBFD14224B
:1018A00020462946FFF7C6FDAF2220462946FFF70E
:1018B000C1FDB0BDF0B587B005920646012B00D141
:1018C000C1E0022B00D01EE105980478002C00D165
:1018D00019E100229BE0F8B23E460397020910325C
:1018E000029228461F4619460093FFF7A3FD0E20DB
:1018F0003040421C019228463946FFF79BFD203CB0
:10190000E0B20401814F3A5D402628463146FFF798
:1019100091FD601C3A5C28463146FFF78BFDA01C08
:101920003A5C28463146FFF785FDE01C3A5C2846C4
:101930003146FFF77FFD201D3A5C28463146FFF710
:1019400079FD601D3A5C28463146FFF773FDA01D06
:101950003A5C28463146FFF76DFDE01D3A5C2846AB
:101960003146FFF767FD06984F38C2B22846009F00
:101970003946FFF75FFD28463946029AFFF75AFDC0
:1019800028463946019AFFF755FD204608305F4F3B
:101990003A5C28463146FFF74DFD204609303A5C57
:1019A00028463146FFF746FD20460A303A5C284675
:1019B0003146FFF73FFD20460B303A5C2846314662
:1019C000FFF738FD20460C303A5C28463146FFF7D9
:1019D00031FD20460D303A5C28463146FFF72AFD9E
:1019E00020460E303A5C28463146FFF723FD0F347F
:1019F0003A5D28463146FFF71DFD039E0836049ADE
:101A0000521CD0B205990C5C002C06997BD08B1C23
:101A1000D8B2062800D306230492F0B203907828A7
:101A200000D80B46069318465038C2B23C25002712
:101A300028463946FFF7FEFC039878283B4600D934
:101A400049E7374647E705980778002F5BD0002223
:101A50003FE00146C0B20E46039102091032204613
:101A60002946FFF7E7FC0E203040421C204629465D
:101A7000FFF7E0FC203FF8B206264643244FBA5D4C
:101A8000402520462946FFF7D5FCBE19727820462E
:101A90002946FFF7CFFCB27820462946FFF7CAFC5B
:101AA000F27820462946FFF7C5FC327920462946C0
:101AB000FFF7C0FC727920462946FFF7BBFC03986C
:101AC000861D069A521CD0B205990F5C002F04990E
:101AD00019D04B1CD8B2072800D3072306920396CF
:101AE000F6B27E2E00D80B46049318465038C2B288
:101AF0003C24002520462946FFF79CFC7E2E2846E4
:101B0000A7D80398A5E707B0F0BDC046EE220000B5
:101B1000C620000010B504460068102101431029BA
:101B200003D01048512100F0F8F960680421014306
:101B3000042903D00B48522100F0EFF9A0680221DC
:101B40000143022904D00748532100F0E6F9A068B8
:101B500005490A6816239A4318CC134323430343C9
:101B60000B6010BD6529000010ED00E030BF70472C
:101B7000704770477047704770B504460B21C841E5
:101B8000811E194D194E0E2917D228480088284960
:101B900001402143696128683043286015480246A6
:101BA0006B6991B20A1894B2944203D00124E40301
:101BB0002340F5D04842484170BD0028E5D00128B7
:101BC00008D08D2041000A4800F0A7F90120C0028A
:101BD0008442DAD1281F00684007D6D130460F3042
:101BE000696801436960D0E70440004001005A5A27
:101BF000E8280000FFFF00007047000010B50B4808
:101C000001880B4A0A400B490B680B4C1C40A21878
:101C10000A604088094A02408868094B03409818C6
:101C2000886008480849016010BDC046C007100020
:101C3000FF0700001840004000F8FFFFFF0300000E
:101C400000FCFFFF0C00002000093D0070477047BA
:101C5000F0B587B063488488019404AE00200290F8
:101C6000B071562070712E20B0705F492046FEF78B
:101C700057FA30210391084330707D20C500A0B28F
:101C80002946FEF74DFA04460A273946FEF748FA78
:101C900003980143717065430198401B3D46029FC4
:101CA00084B264212046FEF73BFA03990843F070A2
:101CB00020460C462946FEF733FAC0B22946FEF705
:101CC0002FFA214331711E20012339463246FFF796
:101CD000F1FD464EB078002800951ED0B08806AEC3
:101CE000F7702521B1702946FEF71AFA0290C0B2AA
:101CF0002946FEF715FA274604462946FEF710FA4C
:101D0000394331706C430298001B3C463843707075
:101D10003C2001213246354E02E03C20344A01216C
:101D20000B46FFF7C7FDB079002824D0308906ADF7
:101D300025216980009E3146FEF7F2F90290C0B27B
:101D40003146FEF7EDF9274604463146FEF7E8F93D
:101D50003943297066430298801B244E38436870CB
:101D60003C20022101232A46FFF7A4FD70780028B9
:101D70000AD022A209E03C2002211D4A0123FFF7DC
:101D800099FD70780028F4D11AA2182003250124A7
:101D900029462346FFF78EFD3078012801D01AA28C
:101DA00000E018A20F4F542029462346FFF782FD7A
:101DB000B878164D164900282A4600D00A461E203B
:101DC000042631462346FFF775FDF878002800D039
:101DD0000F4D5A2031462A462346FFF76BFD07B0C8
:101DE000F0BDC046240000201027000000000020A5
:101DF000DE2800004F464620000000004F4E202005
:101E0000000000003120200032202000E5280000E2
:101E1000E2280000F0B581B0FFF7B7FB002522A251
:101E20000124284629462346FFF744FD20A22846E0
:101E300021462346FFF73EFD022120A228462346E5
:101E4000FFF738FD032720A2284639462346FFF72F
:101E500031FD3C261EA2304639462346FFF72AFDB7
:101E600004271DA2284639462346FFF723FD1CA25E
:101E7000304639462346FFF71DFD05211AA22846A4
:101E80002346FFF717FD06211CA228462346FFF72D
:101E900011FD07211CA228462346FFF70BFDFFF783
:101EA000D7FE01B0F0BDC046564241543A00000092
:101EB000473128504231293A00000000473228506B
:101EC0004133293A000000005057523A0000000008
:101ED0004355523A00000000444554313A00000096
:101EE000444554323A000000313A50575220322FC4
:101EF000333A4252542D2F2B00000000343A4752FF
:101F00005020353A414C4C004445543A48693D4CC8
:101F1000494E4B00704770477047FEE784B001247C
:101F2000E002FFF729FE58480168584A1143016052
:101F300010320168114301602020029010250195A4
:101F400080200390524E30465C3801A9FFF77AF9A1
:101F5000009535604F4D6C70FFF7D0F9FEF7CAFF62
:101F6000FEF748FDFEF706FEFEF7C6FEFFF7E5FBAF
:101F700072B6FFF753F84848016840220A43BF2170
:101F80008A43026020054549086062B60026304653
:101F9000FEF7DAFE424FB8702046FEF7D5FEF87025
:101FA00068780028314608D0A8780028314604D047
:101FB000B8780028314600D0A9886878002806D073
:101FC000A879002803D0F878002800D02E890024B2
:101FD0002046FFF707F8012528463146FFF702F8AB
:101FE000FFF718FF7878002846D07C70FEF7E4FEF3
:101FF000FEF756FFFEF780FE4B2080002949096856
:102000000818786123484570009821490860FFF757
:102010003EFC2046FEF798FE06462846FEF794FE54
:10202000B9788E4202D1F978884224D0BE70F87017
:10203000184A50780028214608D090780028214678
:1020400004D0B8780028214600D091885078002824
:10205000264608D090790028264604D0F878002833
:10206000264600D016890020FEF7BCFF28463146E0
:10207000FEF7B8FF3D703D7038780028B2D00020E0
:102080003870FFF7E5FDADE73040004010005A5AC8
:102090005C0100480000002014E400E000E100E0E2
:1020A000240000203C00002002E008C8121F08C1E4
:1020B000002AFAD170477047002001E001C1121FC9
:1020C000002AFBD170470000000000000000002F34
:1020D000000000000700070000147F147F14002494
:1020E0002A7F2A12006264081323003649552250C1
:1020F00000000503000000001C22410000004122F6
:102100001C000014083E08140008083E08080000DF
:1021100000A06000000808080808000060600000D7
:10212000002010080402003E5149453E0000427F55
:102130004000004261514946002141454B310018A1
:1021400014127F10002745454539003C4A49493063
:10215000000171090503003649494936000649491D
:10216000291E000036360000000056360000000828
:102170001422410000141414141400004122140805
:1021800000020151090600324959513E007C1211EA
:10219000127C007F49494936003E41414122007F7F
:1021A0004141221C007F49494941007F0909090139
:1021B000003E4149497A007F0808087F0000417FBE
:1021C0004100002040413F01007F08142241007F70
:1021D00040404040007F020C027F007F0408107FD7
:1021E000003E4141413E007F09090906003E415140
:1021F000215E007F091929460046494949310001FD
:10220000017F0101003F4040403F001F2040201F50
:10221000003F4038403F0063140814630007087013
:10222000080700615149454300007F4141000055C6
:102230002A552A55000041417F0000040201020492
:10224000004040404040000001020400002054547F
:102250005478007F484444380038444444200038CF
:102260004444487F00385454541800087E09010241
:102270000018A4A4A47C007F080404780000447D16
:102280004000004080847D00007F10284400000052
:10229000417F4000007C04180478007C0804047826
:1022A00000384444443800FC242424180018242412
:1022B00018FC007C0804040800485454542000040E
:1022C0003F444020003C4040207C001C2040201C1B
:1022D000003C4030403C004428102844001CA0A092
:1022E000A07C004464544C441414141414140000CE
:1022F00000000000000000000000000000000000DE
:1023000000F8000000000000003330000000001062
:102310000C06100C0600000000000000000040C089
:102320007840C0784000043F04043F04040000707B
:1023300088FC08300000001820FF211E0000F00873
:10234000F000E018000000211C031E211E0000F018
:102350000888700000001E21232419272110101660
:102360000E0000000000000000000000000000005F
:1023700000E01804020000000007182040000002DE
:102380000418E00000000040201807000000404052
:1023900080F0804040000202010F010202000000B4
:1023A00000F0000000000101011F01010100000018
:1023B00000000000000080B070000000000000007D
:1023C0000000000000000001010101010101000006
:1023D000000000000000003030000000000000009D
:1023E000000080601804006018060100000000E092
:1023F00010080810E000000F102020100F0000103F
:1024000010F8000000000020203F20200000007095
:10241000080808887000003028242221300000308D
:102420000888884830000018202020110E00000085
:10243000C02010F8000000070424243F240000F806
:102440000888880808000019212020110E0000E0EB
:10245000108888180000000F112020110E0000388D
:102460000808C83808000000003F000000000070A5
:10247000880808887000001C222121221C0000E02E
:1024800010080810E0000000312222110F000000A7
:1024900000C0C0000000000000303000000000005C
:1024A00000800000000000008060000000000000CC
:1024B0008040201008000001020408102000404065
:1024C00040404040400004040404040404000008A8
:1024D000102040800000002010080402010000705D
:1024E00048080808F0000000003036010000C03045
:1024F000C828E810E0000718272423140B00000068
:10250000C038E0000000203C23020227382008F8F1
:10251000888888700000203F202020110E00C030E5
:10252000080808083800071820202010080008F8BC
:1025300008080810E000203F202020100F0008F8B5
:102540008888E8081000203F20202320180008F881
:102550008888E8081000203F200003000000C030F9
:1025600008080838000007182020221E020008F87A
:1025700008000008F808203F210101213F20000841
:1025800008F8080800000020203F2020000000007C
:102590000808F8080800C08080807F00000008F864
:1025A00088C028180800203F20012638200008F89D
:1025B000080000000000203F20202020300008F804
:1025C000F800F8F80800203F003F003F200008F81E
:1025D00030C00008F808203F200007183F00E01036
:1025E00008080810E0000F10202020100F0008F845
:1025F00008080808F000203F210101010000E01058
:1026000008080810E0000F18242438504F0008F87C
:10261000888888887000203F2000030C30200070DC
:102620008808080838000038202121221C001808DA
:1026300008F8080818000000203F2000000008F8F3
:1026400008000008F808001F202020201F0008783C
:10265000880000C83808000007380E010000F8089C
:1026600000F80008F800033C0700073C03000818C6
:1026700068808068180820302C03032C302008382C
:10268000C800C83808000000203F200000001008E3
:102690000808C8380800203826212020180000002B
:1026A00000FE020202000000007F40404000000CDB
:1026B00030C000000000000000010638C000000229
:1026C0000202FE000000004040407F0000000000C9
:1026D00004020202040000000000000000000000EC
:1026E00000000000000080808080808080800002E8
:1026F00002040000000000000000000000000000D4
:102700008080808000000019242222223F2008F8C7
:10271000008080000000003F112020110E0000000A
:10272000008080800000000E112020201100000099
:1027300000808088F800000E112020103F2000004B
:10274000808080800000001F22222222130000804F
:1027500080F0888888180020203F2020000000009A
:10276000808080808000006B94949493600008F8CF
:10277000008080800000203F210000203F2000805A
:102780009898000000000020203F2020000000005A
:1027900000809898000000C08080807F000008F8CA
:1027A000000080808000203F24022D30200000089F
:1027B00008F8000000000020203F2020000080805A
:1027C000808080808000203F20003F20003F80806C
:1027D000008080800000203F210000203F2000007A
:1027E000808080800000001F202020201F0080802B
:1027F00000808000000080FFA12020110E0000005A
:10280000008080808000000E112020A0FF8080804A
:1028100080008080800020203F21200001000000F7
:1028200080808080800000332424242419000080CC
:1028300080E0808000000000001F202000008080D9
:10284000000000808000001F202020103F2080809A
:1028500080000080808000010E300806010080802A
:102860000080008080800F300C030C300F0000804F
:102870008000808080000020312E0E31200080807A
:1028800080000080808080818E70180601000080AA
:102890008080808080000021302C222130000000C8
:1028A0000000807C020200000000003F4040000069
:1028B0000000FF00000000000000FF000000000218
:1028C000027C800000000040403F00000000000645
:1028D00001010202040400000000000000004F4655
:1028E00046004F4B004E4F002E2E2F2E2E2F2E2EF9
:1028F0002F4C69627261726965732F7372632F6303
:102900007733326C3031305F7379736374726C2E4D
:1029100063002E2E2F2E2E2F2E2E2F4C69627261C9
:10292000726965732F7372632F637733326C303142
:10293000305F6174696D2E63002E2E2F2F2E2E2F87
:102940002F2E2E2F2F4C69627261726965732F2FA3
:102950007372632F2F637733326C3031305F627460
:10296000696D2E63002E2E2F2F2E2E2F2F2E2E2F01
:102970002F4C69627261726965732F2F7372632FB6
:102980002F637733326C3031305F7077722E630093
:102990002E2E2F2E2E2F2E2E2F4C696272617269D1
:1029A00065732F7372632F637733326C3031305F0E
:1029B0006164632E63000000D8290000000000203D
:1029C00010000000A8200000E829000010000020EE
:1029D00030040000B820000001010100F4010100F2
:0829E000F401000000093D00B4
:04000005000000C136
:00000001FF
